:100000000C945D000C9485000C9485000C94850084
:100010000C9485000C9485000C9485000C9485004C
:100020000C9485000C9485000C9485000C9485003C
:100030000C9485000C9485000C9485000C9485002C
:100040000C944B030C9485000C9419030C94F3024C
:100050000C9485000C9485000C9485000C9485000C
:100060000C9495030C948500000000080002010028
:100070000003040700000000000000000000000072
:10008000250028002B0000000000240027002A0083
:10009000040404040404040402020202020203032E
:1000A0000303030301020408102040800102040836
:1000B0001020010204081020C30411241FBECFEF3A
:1000C000D8E0DEBFCDBF11E0A0E0B1E0ECE1F2E1AD
:1000D00002C005900D92A033B107D9F722E0A0E34A
:1000E000B1E001C01D92A335B207E1F710E0CDE504
:1000F000D0E004C02197FE010E942906CC35D1072B
:10010000C9F70E94FC040C940C090C94000090E0C8
:10011000FC01EC55FF4F2491FC01E057FF4F849107
:10012000882399F090E0880F991FFC01EA57FF4F50
:10013000A591B491FC01E458FF4F859194918FB73C
:10014000F894EC91E22BEC938FBF0895CF92DF925D
:10015000EF92FF920F931F93CF93DF936C017A017D
:100160008B01C0E0D0E0CE15DF0589F0D8016D919C
:100170008D01D601ED91FC910190F081E02DC60139
:100180000995892B11F47E0102C02196ECCFC7019D
:10019000DF91CF911F910F91FF90EF90DF90CF9063
:1001A0000895FC01918D828D981761F0828DDF0199
:1001B000A80FB11D5D968C91928D9F5F9F73928F5A
:1001C00090E008958FEF9FEF0895FC01918D828D4F
:1001D000981731F0828DE80FF11D858D90E008951C
:1001E0008FEF9FEF0895FC01918D228D892F90E074
:1001F000805C9F4F821B91098F73992708958AEA2B
:1002000091E00E94F30021E0892B09F420E0822F85
:100210000895FC01848DDF01A80FB11DA35ABF4FC3
:100220002C91848D90E001968F739927848FA689F5
:10023000B7892C93A089B1898C9180648C93938D1C
:10024000848D981306C00288F389E02D80818F7D0C
:1002500080830895EF92FF920F931F93CF93DF93C4
:10026000EC0181E0888F9B8D8C8D981305C0E88907
:10027000F989808185FD24C0F62E0B8D10E00F5F7B
:100280001F4F0F731127E02E8C8DE8120CC00FB694
:1002900007FCFACFE889F989808185FFF5CFCE0187
:1002A0000E940901F1CF8B8DFE01E80FF11DE35A89
:1002B000FF4FF0820B8FEA89FB898081806207C043
:1002C000EE89FF896083E889F98980818064808371
:1002D00081E090E0DF91CF911F910F91FF90EF901F
:1002E0000895CF93DF93EC01888D8823C9F0EA89C4
:1002F000FB89808185FD05C0A889B9898C9186FD1F
:100300000FC00FB607FCF5CF808185FFF2CFA8891B
:10031000B9898C9185FFEDCFCE010E940901E7CF0D
:10032000DF91CF91089580E090E0892B29F00E9421
:10033000FF0081110C940000089590E0FC01E85941
:10034000FF4F3491FC01EC55FF4F2491FC01E05725
:10035000FF4FE491EE2309F43BC0332339F13330EE
:1003600091F038F43130A9F0323001F584B58F7D49
:1003700012C0373091F03830A1F03430B9F48091A8
:1003800080008F7D03C0809180008F7780938000F4
:100390000DC084B58F7784BD09C08091B0008F7780
:1003A00003C08091B0008F7D8093B000F0E0EE0F2D
:1003B000FF1FE458FF4FA591B4918FB7F894EC91CB
:1003C000611103C020952E2301C02E2B2C938FBFCB
:1003D0000895EF92FF921F93CF93DF931F92CDB7B3
:1003E000DEB7182F7B0160E08091A90149830E944C
:1003F0009D01E3E2F0E03197F1F71EBD0000498175
:100400000DB407FEFDCF8EB58BEE90E00197F1F7AE
:10041000F70150E02BEE30E0CF018E199F098417D1
:1004200095075CF481918EBD00000DB407FEFDCFF1
:100430008EB5C9010197F1F7EFCF61E08091A90175
:100440000E949D0183E290E00197F1F70F90DF9108
:10045000CF911F91FF90EF9008953FB7F89480914E
:10046000A4019091A501A091A601B091A70126B584
:10047000A89B05C02F3F19F00196A11DB11D3FBFDC
:10048000BA2FA92F982F8827820F911DA11DB11D6A
:10049000BC01CD0142E0660F771F881F991F4A9566
:1004A000D1F708958F929F92AF92BF92CF92DF9231
:1004B000EF92FF926B017C010E942D024B015C01C7
:1004C000C114D104E104F104F1F00E942D02DC0119
:1004D000CB0188199909AA09BB09883E9340A10557
:1004E000B10570F321E0C21AD108E108F10888EEE5
:1004F000880E83E0981EA11CB11CC114D104E10434
:10050000F10419F7DDCFFF90EF90DF90CF90BF900F
:10051000AF909F908F90089585ED8093BC0080915F
:10052000BC0084FDFCCF10927901089540915301E5
:10053000262F30E0240F311D21323105DCF42091CB
:1005400079012430C9F4FC0180E090E0861758F46A
:10055000309153012191DC01AF5CBE4FA30FB11D5F
:100560002C930196F3CF80915301680F6093530150
:1005700080E0089581E0089582E0089508958FEF66
:100580009FEF08958FEF9FEF08958091300190E0E5
:100590009195819591090895CF93DF9300D0CDB7C0
:1005A000DEB7CB01642F49835A830E9496024981AA
:1005B000842F5A81952F0F900F90DF91CF9108953E
:1005C000CF93DF931F92CDB7DEB7698361E0CE0191
:1005D00001960E94960281E090E00F90DF91CF910A
:1005E00008950E942F061F920F920FB60F921124AA
:1005F0002F933F934F935F936F937F938F939F932B
:10060000AF93BF93EF93FF938AEA91E00E940901B1
:10061000FF91EF91BF91AF919F918F917F916F91DA
:100620005F914F913F912F910F900FBE0F901F90B0
:1006300018951F920F920FB60F9211242F938F933C
:100640009F93EF93FF93E091BA01F091BB018081FA
:10065000E091C001F091C10182FD12C090818091B2
:10066000C3018F5F8F732091C401821751F0E09115
:10067000C301F0E0E655FE4F958F8093C30101C0A2
:100680008081FF91EF919F918F912F910F900FBEDD
:100690000F901F9018951F920F920FB60F92112472
:1006A0002F933F938F939F93AF93BF938091A0011C
:1006B0009091A101A091A201B091A30130919F015D
:1006C00023E0230F2D3720F40196A11DB11D05C095
:1006D00026E8230F0296A11DB11D20939F01809350
:1006E000A0019093A101A093A201B093A3018091D6
:1006F000A4019091A501A091A601B091A701019636
:10070000A11DB11D8093A4019093A501A093A60102
:10071000B093A701BF91AF919F918F913F912F917E
:100720000F900FBE0F901F9018951F920F920FB64B
:100730000F9211242F933F934F935F936F937F9367
:100740008F939F93AF93BF93EF93FF938091B900E3
:10075000887F803609F49CC068F5883209F45BC054
:1007600090F4803109F454C038F4882309F4F6C0B9
:10077000883009F44DC0F6C0883109F44CC080328D
:1007800009F45DC0EFC0803409F468C048F48033D8
:1007900009F455C0883309F0E5C080937801D8C0CA
:1007A000803509F44FC0883509F45DC0883409F0FC
:1007B000D9C0D6C0883909F4C7C0A8F4883709F46D
:1007C00067C038F4883609F463C0803709F460C024
:1007D000C9C0883809F4B8C0803909F45FC08038CE
:1007E00009F0C0C05BC0803B09F486C038F4803A91
:1007F00009F466C0883A09F47FC0B4C0803C09F4AB
:10080000A7C0883C09F4A4C0883B09F48AC0AAC0E8
:1008100080919E0110C090919D0180919C0198173C
:1008200070F5E0919D0181E08E0F80939D01F0E0D5
:10083000E458FE4F80818093BB0085EC86C0809396
:1008400078018EC0E0919D0181E08E0F80939D0123
:100850008091BB00F0E0E458FE4F808390919D01B1
:1008600080919C016EC0E0919D0181E08E0F80938C
:100870009D018091BB00F0E0E458FE4F80838091A1
:100880007B0181116DC081E080937A0184EA61C0AF
:1008900083E08093790110927701CFCF8091770127
:1008A000803208F051C0E091770181E08E0F809393
:1008B00077018091BB00F0E0E95AFE4F8083BDCF05
:1008C00085EC8093BC001092790180917701803291
:1008D00030F4E0917701F0E0E95AFE4F1082609128
:1008E000770170E0E0915501F091560187E591E0C4
:1008F00009951092770136C084E0809379011092B7
:10090000540110925301E0915101F0915201099567
:1009100080915301811105C081E0809353011092B1
:100920003101E091540181E08E0F80935401F0E099
:10093000EF5CFE4F80818093BB00909154018091C9
:100940005301981708F479CF85E88093BC000AC05A
:1009500085EC8093BC001092790104C0109278015C
:100960000E948C02FF91EF91BF91AF919F918F9167
:100970007F916F915F914F913F912F910F900FBE9B
:100980000F901F901895EAEAF1E01382128288EE28
:1009900093E0A0E0B0E084839583A683B78324E04E
:1009A00031E03183208325EC30E03587248724EC47
:1009B00030E03787268720EC30E0318B208B21EC2C
:1009C00030E0338B228B22EC30E0358B248B26EC0D
:1009D00030E0378B268B118E128E138E148EE7E447
:1009E000F2E01382128284839583A683B78384E125
:1009F00091E0918380830895CF93DF93CDB7DEB7E5
:100A0000E9970FB6F894DEBF0FBECDBF789484B5DA
:100A1000826084BD84B5816084BD85B5826085BDFA
:100A200085B5816085BD80916E00816080936E0088
:100A3000109281008091810082608093810080917A
:100A4000810081608093810080918000816080932B
:100A500080008091B10084608093B1008091B000EB
:100A600081608093B00080917A00846080937A00E6
:100A700080917A00826080937A0080917A00816010
:100A800080937A0080917A00806880937A00109237
:100A9000C100E091BA01F091BB0192E09083E09136
:100AA000BA01F091BB011082E091B601F091B7015B
:100AB0001082E091B801F091B90180E18083109239
:100AC000C201E091BE01F091BF0186E08083E09118
:100AD000BC01F091BD01808180618083E091BC0107
:100AE000F091BD01808188608083E091BC01F0912C
:100AF000BD01808180688083E091BC01F091BD01DF
:100B000080818F7D80839093A90182E00E9487007D
:100B10001FB7F8948091A801811124C0EAE9F0E0A0
:100B20008491EEEAF0E09491E82FF0E0EE0FFF1FE1
:100B3000EA57FF4FA591B491EC91E92321F461E0CC
:100B40008AE00E949D018AE00E9487008CB5806146
:100B50008CBD8CB580648CBD8DE00E9487008BE0DD
:100B60000E9487008091A8018F5F8093A8011FBF1A
:100B70008CB58F7D8CBD8CB5837F84608CBD61E02E
:100B80008091A9010E949D0183EC90E00197F1F70B
:100B90008AEA898385E58A8342E0CE0101967C0159
:100BA000BC0187EF0E94E90165E070E080E090E021
:100BB0000E9452028CE2C82E81E0D82E8E010C5E7B
:100BC0001F4F9AEAB92E25E5A22E30E2932EE0E2DD
:100BD000F1E0D70181918D9391E0E033F907D1F7EE
:100BE000198AFF92EF92DF92CF921F930F930E9488
:100BF0003406BFA2A8A6DE0199960F900F900F9021
:100C00000F900F900F90F8019F01201B310B2817B8
:100C100039071CF421912D93F7CF803191054CF4C5
:100C2000E7E2F0E0EC0FFD1FE80FF91F928201965A
:100C3000F4CF43E1BE01695D7F4F8AEF0E94E90175
:100C400063E170E080E090E00E9452020E94930114
:100C5000BECFEE0FFF1F0590F491E02D099481E0C7
:100C600090E0F8940C940C09AEE0B0E0EAE3F6E012
:100C70000C94E3080D891E8986E08C831A8309830E
:100C80008FEF9FE79E838D83AE01475E5F4F6F8935
:100C9000788DCE0101960E9457062F813885F80184
:100CA000E20FF31F10822E96E4E00C94FF08ACE0F4
:100CB000B0E0EDE5F6E00C94D5087C016B018A010B
:100CC000FC0117821682838181FFBDC1CE0101968E
:100CD0004C01F7019381F60193FD859193FF81917A
:100CE0006F01882309F4ABC1853239F493FD8591F6
:100CF00093FF81916F01853229F4B70190E00E9442
:100D00003F08E7CF512C312C20E02032A0F48B3269
:100D100069F030F4803259F0833269F420612CC0DC
:100D20008D3239F0803339F4216026C0226024608E
:100D300023C0286021C027FD27C030ED380F3A308E
:100D400078F426FF06C0FAE05F9E300D1124532E82
:100D500013C08AE0389E300D1124332E20620CC05F
:100D60008E3221F426FD6BC1206406C08C3611F44E
:100D7000206802C0883641F4F60193FD859193FF07
:100D800081916F018111C1CF982F9F7D9554933030
:100D900028F40C5F1F4FFFE3F9830DC0833631F059
:100DA000833771F0833509F05BC022C0F801808180
:100DB00089830E5F1F4F44244394512C540115C066
:100DC0003801F2E06F0E711CF801A080B18026FF9F
:100DD00003C0652D70E002C06FEF7FEFC5012C8767
:100DE0000E9434082C0183012C852F77222E17C0F6
:100DF0003801F2E06F0E711CF801A080B18026FF6F
:100E000003C0652D70E002C06FEF7FEFC5012C8736
:100E10000E9429082C012C852068222E830123FCA6
:100E20001BC0832D90E048165906B0F4B70180E24C
:100E300090E00E943F083A94F4CFF50127FC859199
:100E400027FE81915F01B70190E00E943F083110B9
:100E50003A94F1E04F1A51084114510471F7E5C07A
:100E6000843611F0893639F5F80127FF07C0608113
:100E70007181828193810C5F1F4F08C060817181F5
:100E8000072E000C880B990B0E5F1F4F2F76722ECA
:100E900097FF09C090958095709561957F4F8F4F12
:100EA0009F4F2068722E2AE030E0A4010E9477084C
:100EB000A82EA81844C0853729F42F7EB22E2AE028
:100EC00030E025C0F22FF97FBF2E8F36C1F018F425
:100ED000883579F0B4C0803719F0883721F0AFC079
:100EE0002F2F2061B22EB4FE0DC08B2D8460B82E42
:100EF00009C024FF0AC09F2F9660B92E06C028E0C3
:100F000030E005C020E130E002C020E132E0F8012D
:100F1000B7FE07C060817181828193810C5F1F4F92
:100F200006C06081718180E090E00E5F1F4FA401D8
:100F30000E947708A82EA818FB2DFF777F2E76FE3B
:100F40000BC0372D3E7FA51450F474FE0AC072FC0E
:100F500008C0372D3E7E05C0BA2C372D03C0BA2CF1
:100F600001C0B52C34FF0DC0FE01EA0DF11D8081DA
:100F7000803311F4397E09C032FF06C0B394B394B4
:100F800004C0832F867809F0B39433FD13C030FF7B
:100F900006C05A2CB31418F4530C5B18B32CB314BA
:100FA00068F4B70180E290E03C870E943F08B39468
:100FB0003C85F5CFB31410F43B1801C0312C34FF3D
:100FC00012C0B70180E390E03C870E943F083C8557
:100FD00032FF17C031FD03C088E790E002C088E50A
:100FE00090E0B7010CC0832F867859F031FF02C022
:100FF0008BE201C080E237FD8DE2B70190E00E94F4
:101000003F08A51438F4B70180E390E00E943F0840
:101010005A94F7CFAA94F401EA0DF11D8081B7012B
:1010200090E00E943F08A110F5CF332009F451CE83
:10103000B70180E290E00E943F083A94F6CFF701B2
:101040008681978102C08FEF9FEF2C96E2E10C948E
:10105000F108FC010590615070400110D8F78095AF
:1010600090958E0F9F1F0895FC0161507040019074
:101070000110D8F7809590958E0F9F1F08950F93BC
:101080001F93CF93DF93FB01238121FD03C08FEFDB
:101090009FEF28C022FF16C04681578124813581E9
:1010A0004217530744F4A081B1819D012F5F3F4F48
:1010B000318320838C93268137812F5F3F4F378385
:1010C000268310C0EB01092F182F0084F185E02D35
:1010D0000995892BE1F68E819F8101969F838E83EE
:1010E000812F902FDF91CF911F910F910895FA01D9
:1010F000AA27283051F1203181F1E8946F936E7F57
:101100006E5F7F4F8F4F9F4FAF4FB1E03ED0B4E047
:101110003CD0670F781F891F9A1FA11D680F791F88
:101120008A1F911DA11D6A0F711D811D911DA11D99
:1011300020D009F468943F912AE0269F11243019A9
:10114000305D3193DEF6CF010895462F4770405D44
:101150004193B3E00FD0C9F7F6CF462F4F70405DF3
:101160004A3318F0495D31FD4052419302D0A9F74E
:10117000EACFB4E0A6959795879577956795BA9548
:10118000C9F700976105710508959B01AC010A2E0E
:1011900006945795479537952795BA95C9F7620FE5
:1011A000731F841F951FA01D08952F923F924F9289
:1011B0005F926F927F928F929F92AF92BF92CF92E7
:1011C000DF92EF92FF920F931F93CF93DF93CDB7F0
:1011D000DEB7CA1BDB0B0FB6F894DEBF0FBECDBF68
:1011E00009942A88398848885F846E847D848C8439
:1011F0009B84AA84B984C884DF80EE80FD800C8142
:101200001B81AA81B981CE0FD11D0FB6F894DEBF24
:0C1210000FBECDBFED010895F894FFCF94
:10121C00000000002A01A600F300D100E5007101D6
:10122C0000000000E002CC02C502C202BF02BE02F6
:10123C0048616C6C6F20576F726C640025730000F2
:00000001FF
