:100000000C945D000C9485000C9485000C94850084
:100010000C9485000C9485000C9485000C9485004C
:100020000C9485000C9485000C9485000C9485003C
:100030000C9485000C9485000C9485000C9485002C
:100040000C946C040C9485000C943A040C941404E5
:100050000C9485000C9485000C9485000C9485000C
:100060000C94B6040C948500000000080002010006
:100070000003040700000000000000000000000072
:10008000250028002B0000000000240027002A0083
:10009000040404040404040402020202020203032E
:1000A0000303030301020408102040800102040836
:1000B0001020010204081020E40511241FBECFEF18
:1000C000D8E0DEBFCDBF11E0A0E0B1E0ECE7F4E1A5
:1000D00002C005900D92AA32B107D9F722E0AAE238
:1000E000B1E001C01D92A337B207E1F710E0CDE502
:1000F000D0E004C02197FE010E945907CC35D107FA
:10010000C9F70E941D060C943C0A0C94000090E074
:10011000FC01EC55FF4F2491FC01E057FF4F849107
:10012000882399F090E0880F991FFC01EA57FF4F50
:10013000A591B491FC01E458FF4F859194918FB73C
:10014000F894EC91E22BEC938FBF0895CF92DF925D
:10015000EF92FF920F931F93CF93DF936C017A017D
:100160008B01C0E0D0E0CE15DF0589F0D8016D919C
:100170008D01D601ED91FC910190F081E02DC60139
:100180000995892B11F47E0102C02196ECCFC7019D
:10019000DF91CF911F910F91FF90EF90DF90CF9063
:1001A0000895FC01918D828D981761F0828DDF0199
:1001B000A80FB11D5D968C91928D9F5F9F73928F5A
:1001C00090E008958FEF9FEF0895FC01918D828D4F
:1001D000981731F0828DE80FF11D858D90E008951C
:1001E0008FEF9FEF0895FC01918D228D892F90E074
:1001F000805C9F4F821B91098F73992708958AEC29
:1002000091E00E94F30021E0892B09F420E0822F85
:100210000895FC01848DDF01A80FB11DA35ABF4FC3
:100220002C91848D90E001968F739927848FA689F5
:10023000B7892C93A089B1898C9180648C93938D1C
:10024000848D981306C00288F389E02D80818F7D0C
:1002500080830895EF92FF920F931F93CF93DF93C4
:10026000EC0181E0888F9B8D8C8D981305C0E88907
:10027000F989808185FD24C0F62E0B8D10E00F5F7B
:100280001F4F0F731127E02E8C8DE8120CC00FB694
:1002900007FCFACFE889F989808185FFF5CFCE0187
:1002A0000E940901F1CF8B8DFE01E80FF11DE35A89
:1002B000FF4FF0820B8FEA89FB898081806207C043
:1002C000EE89FF896083E889F98980818064808371
:1002D00081E090E0DF91CF911F910F91FF90EF901F
:1002E0000895CF93DF93EC01888D8823C9F0EA89C4
:1002F000FB89808185FD05C0A889B9898C9186FD1F
:100300000FC00FB607FCF5CF808185FFF2CFA8891B
:10031000B9898C9185FFEDCFCE010E940901E7CF0D
:10032000DF91CF91089580E090E0892B29F00E9421
:10033000FF0081110C940000089590E0FC01E85941
:10034000FF4F3491FC01EC55FF4F2491FC01E05725
:10035000FF4FE491EE2309F43BC0332339F13330EE
:1003600091F038F43130A9F0323001F584B58F7D49
:1003700012C0373091F03830A1F03430B9F48091A8
:1003800080008F7D03C0809180008F7780938000F4
:100390000DC084B58F7784BD09C08091B0008F7780
:1003A00003C08091B0008F7D8093B000F0E0EE0F2D
:1003B000FF1FE458FF4FA591B4918FB7F894EC91CB
:1003C000611103C020952E2301C02E2B2C938FBFCB
:1003D0000895EF92FF921F93CF93DF931F92CDB7B3
:1003E000DEB7182F7B0160E080917D0149830E9478
:1003F0009D01E3E2F0E03197F1F71EBD0000498175
:100400000DB407FEFDCF8EB58BEE90E00197F1F7AE
:10041000F70150E02BEE30E0CF018E199F098417D1
:1004200095075CF481918EBD00000DB407FEFDCFF1
:100430008EB5C9010197F1F7EFCF61E080917D01A1
:100440000E949D0183E290E00197F1F70F90DF9108
:10045000CF911F91FF90EF9008953FB7F89480914E
:10046000760190917701A0917801B091790126B53C
:10047000A89B05C02F3F19F00196A11DB11D3FBFDC
:10048000BA2FA92F982F8827820F911DA11DB11D6A
:10049000BC01CD0142E0660F771F881F991F4A9566
:1004A000D1F708958F929F92AF92BF92CF92DF9231
:1004B000EF92FF926B017C010E942D024B015C01C7
:1004C000C114D104E104F104F1F00E942D02DC0119
:1004D000CB0188199909AA09BB09883E9340A10557
:1004E000B10570F321E0C21AD108E108F10888EEE5
:1004F000880E83E0981EA11CB11CC114D104E10434
:10050000F10419F7DDCFFF90EF90DF90CF90BF900F
:10051000AF909F908F90089585ED8093BC0080915F
:10052000BC0084FDFCCF1092A401089540914C01C1
:10053000262F30E0240F311D21323105DCF42091CB
:10054000A4012430C9F4FC0180E090E0861758F43F
:1005500030914C012191DC01A65DBE4FA30FB11D6E
:100560002C930196F3CF80914C01680F60934C015E
:1005700080E0089581E0089582E00895089581E083
:1005800090E030917B0120917A01321710F480E0E5
:1005900090E0919581959109089580917B019091CA
:1005A0007A01891730F48F5F80937B0180E090E0BF
:1005B00008958FEF9FEF089580917A0190E0209148
:1005C0007B01821B91090895CF92DF92EF92FF92F7
:1005D0000F931F93CF93DF937C01262F972F8A01D0
:1005E0008091C801882391F0C62FD72F6E01C40EC9
:1005F000D51ECC15DD0571F06991D701ED91FC9107
:100600000190F081E02DC7010995F3CF642F822F6F
:100610000E949602C801DF91CF911F910F91FF9028
:10062000EF90DF90CF900895CF93DF931F92CDB7D7
:10063000DEB769832091C8012223D1F02091C50142
:10064000203240F021E030E0FC013383228380E05F
:1006500090E015C08091C601E82FF0E0EB55FE4F09
:10066000998190838F5F8093C6018093C50105C0F7
:1006700061E0CE0101960E94960281E090E00F9029
:10068000DF91CF910895CF92DF92EF92FF921F9367
:10069000CF93DF931F92CDB7DEB7F62E1091C9012D
:1006A00091E09093C8011093C7011092C601109277
:1006B000C501682F87E692E079830E941403CF2C4E
:1006C0007981D72E760184E0E80EF11CF601619164
:1006D0006F0187E692E00E941403CE14DF04B1F7A5
:1006E0008091C501813208F046C09091A40191111A
:1006F000FCCF92E09093A40191E09093A3019FEF2F
:100700009093A2011092A1018093A001A5EAB1E00B
:1007100020E831E0F9019E2F921B981718F49D9163
:100720009193F9CF10927F0180917F01110F182BC7
:1007300010937F0180917E01813061F410927E01DF
:1007400080917F018093BB008091BC0083FDF8CF36
:1007500085EC01C085EE8093BC008091A4018230BD
:10076000E1F38091A2018F3F31F08091A2018032AC
:1007700011F08091A2011092C6011092C501109251
:10078000C8010F90DF91CF911F91FF90EF90DF9004
:10079000CF900895CF9382E080937D010E948700DF
:1007A000CFB7F89480917C01811124C0EAE9F0E090
:1007B0008491EEEAF0E09491E82FF0E0EE0FFF1F55
:1007C000EA57FF4FA591B491EC91E92321F461E040
:1007D0008AE00E949D018AE00E9487008CB58061BA
:1007E0008CBD8CB580648CBD8DE00E9487008BE051
:1007F0000E94870080917C018F5F80937C01CFBF36
:100800008CB58F7D8CBD8CB5837F84608CBD61E0A1
:1008100080917D010E949D0183EC90E00197F1F7AA
:10082000CF9108950E945F071F920F920FB60F920B
:1008300011242F933F934F935F936F937F938F93E5
:100840009F93AF93BF93EF93FF938AEC91E00E9445
:100850000901FF91EF91BF91AF919F918F917F918E
:100860006F915F914F913F912F910F900FBE0F901D
:100870001F9018951F920F920FB60F9211242F936D
:100880008F939F93EF93FF93E091DA01F091DB0157
:100890008081E091E001F091E10182FD12C0908140
:1008A0008091E3018F5F8F732091E401821751F0F3
:1008B000E091E301F0E0E653FE4F958F8093E30172
:1008C00001C08081FF91EF919F918F912F910F90A7
:1008D0000FBE0F901F9018951F920F920FB60F9298
:1008E00011242F933F938F939F93AF93BF93809146
:1008F000720190917301A0917401B09175013091D2
:10090000710123E0230F2D3720F40196A11DB11DA5
:1009100005C026E8230F0296A11DB11D2093710189
:100920008093720190937301A0937401B093750149
:100930008091760190917701A0917801B091790131
:100940000196A11DB11D8093760190937701A0932C
:100950007801B0937901BF91AF919F918F913F91B1
:100960002F910F900FBE0F901F9018951F920F920E
:100970000FB60F9211242F933F934F935F936F9372
:100980007F938F939F93AF93BF93EF93FF93809148
:10099000B900887F803609F49CC068F5883209F474
:1009A0005BC090F4803109F454C038F4882309F412
:1009B000F6C0883009F44DC0F6C0883109F44CC047
:1009C000803209F45DC0EFC0803409F468C048F497
:1009D000803309F455C0883309F0E5C08093A20143
:1009E000D8C0803509F44FC0883509F45DC088341B
:1009F00009F0D9C0D6C0883909F4C7C0A8F488372F
:100A000009F467C038F4883609F463C0803709F404
:100A100060C0C9C0883809F4B8C0803909F45FC023
:100A2000803809F0C0C05BC0803B09F486C038F450
:100A3000803A09F466C0883A09F47FC0B4C0803CAB
:100A400009F4A7C0883C09F4A4C0883B09F48AC013
:100A5000AAC080917F0110C09091A1018091A00156
:100A6000981770F5E091A10181E08E0F8093A101AC
:100A7000F0E0E058FE4F80818093BB0085EC86C09B
:100A80008093A2018EC0E091A10181E08E0F80933E
:100A9000A1018091BB00F0E0E058FE4F808390916F
:100AA000A1018091A0016EC0E091A10181E08E0FB3
:100AB0008093A1018091BB00F0E0E058FE4F80835D
:100AC0008091A30181116DC081E080937E0184EA51
:100AD00061C083E08093A40110927001CFCF809118
:100AE0007001803208F051C0E091700181E08E0FFA
:100AF000809370018091BB00F0E0E05BFE4F80834B
:100B0000BDCF85EC8093BC001092A4018091700150
:100B1000803230F4E0917001F0E0E05BFE4F108233
:100B20006091700170E0E0914E01F0914F0180E51D
:100B300091E009951092700136C084E08093A40181
:100B400010924D0110924C01E0914A01F0914B013D
:100B5000099580914C01811105C081E080934C0181
:100B600010922A01E0914D0181E08E0F80934D019A
:100B7000F0E0E65DFE4F80818093BB0090914D01D7
:100B800080914C01981708F479CF85E88093BC00D8
:100B90000AC085EC8093BC001092A40104C010929E
:100BA000A2010E948C02FF91EF91BF91AF919F91A2
:100BB0008F917F916F915F914F913F912F910F9006
:100BC0000FBE0F901F901895EAECF1E0138212828D
:100BD00088EE93E0A0E0B0E084839583A683B7839A
:100BE00024E031E03183208325EC30E03587248711
:100BF00024EC30E03787268720EC30E0318B208BE7
:100C000021EC30E0338B228B22EC30E0358B248BCF
:100C100026EC30E0378B268B118E128E138E148EBD
:100C2000E7E6F2E01382128284839583A683B7837A
:100C300084E191E0918380830895CF93DF93CDB7D2
:100C4000DEB7E9970FB6F894DEBF0FBECDBF78943C
:100C500084B5826084BD84B5816084BD85B58260C1
:100C600085BD85B5816085BD80916E008160809372
:100C70006E001092810080918100826080938100DB
:100C800080918100816080938100809180008160EB
:100C9000809380008091B10084608093B100809146
:100CA000B00081608093B00080917A00846080936E
:100CB0007A0080917A00826080937A0080917A0035
:100CC000816080937A0080917A00806880937A00B6
:100CD0001092C100E091DA01F091DB0182E08083A3
:100CE000E091D601F091D7011082E091D801F09106
:100CF000D9018FEC80831092E201E091DE01F09146
:100D0000DF0186E08083E091DC01F091DD018081EC
:100D100080618083E091DC01F091DD018081886059
:100D20008083E091DC01F091DD0180818068808327
:100D3000E091DC01F091DD0180818F7D80830E9454
:100D4000CA038AEAD82ED98295E5E92EEA8242E0E2
:100D50008E010F5F1F4FB80187EF0E94E90165E028
:100D600070E080E090E00E945202DA82EC82FF2480
:100D7000F394F982FB82B8018FEE0E94430362E094
:100D800070E080E090E00E94520210927B0110928D
:100D90007A011092C6011092C5011092A401F0923E
:100DA000A30110927E0161E082E10E949D0161E059
:100DB00083E10E949D018091B9008E7F8093B900EC
:100DC0008091B9008D7F8093B90088E48093B8004A
:100DD00085E48093BC000E94CA03D982EA82FB8228
:100DE00043E0B80188EF0E94E90161E070E080E033
:100DF00090E00E945202DA82EC82F982FB82B80112
:100E00008EEE0E94430362E070E080E090E00E947A
:100E1000520226E2C22E21E0D22E7E0184E1E80EAB
:100E2000F11C3AEAB32E45E5A42E50E2952EE0E2FD
:100E3000F1E0D80181918D9381E0E033F807D1F79B
:100E4000198A1F930F93DF92CF92FF92EF920E9425
:100E50006407BFA2A8A6DE0199960F900F900F908D
:100E60000F900F900F90F7019F012E193F0928173F
:100E700039071CF421912D93F7CF803191054CF463
:100E8000E7E2F0E0EC0FFD1FE80FF91F92820196F8
:100E9000F4CF43E1BE01695D7F4F8AEF0E94E90113
:100EA00063E170E080E090E00E9452020E949301B2
:100EB000BECFEE0FFF1F0590F491E02D099481E065
:100EC00090E0F8940C943C0AAEE0B0E0EAE6F7E07B
:100ED0000C94130A0D891E8986E08C831A8309837A
:100EE0008FEF9FE79E838D83AE01475E5F4F6F89D3
:100EF000788DCE0101960E9487072F813885F801F1
:100F0000E20FF31F10822E96E4E00C942F0AACE05F
:100F1000B0E0EDE8F7E00C94050A7C016B018A0172
:100F2000FC0117821682838181FFBDC1CE0101962B
:100F30004C01F7019381F60193FD859193FF819117
:100F40006F01882309F4ABC1853239F493FD859193
:100F500093FF81916F01853229F4B70190E00E94DF
:100F60006F09E7CF512C312C20E02032A0F48B32D6
:100F700069F030F4803259F0833269F420612CC07A
:100F80008D3239F0803339F4216026C0226024602C
:100F900023C0286021C027FD27C030ED380F3A302C
:100FA00078F426FF06C0FAE05F9E300D1124532E20
:100FB00013C08AE0389E300D1124332E20620CC0FD
:100FC0008E3221F426FD6BC1206406C08C3611F4EC
:100FD000206802C0883641F4F60193FD859193FFA5
:100FE00081916F018111C1CF982F9F7D95549330CE
:100FF00028F40C5F1F4FFFE3F9830DC0833631F0F7
:10100000833771F0833509F05BC022C0F80180811D
:1010100089830E5F1F4F44244394512C540115C003
:101020003801F2E06F0E711CF801A080B18026FF3C
:1010300003C0652D70E002C06FEF7FEFC5012C8704
:101040000E9464092C0183012C852F77222E17C062
:101050003801F2E06F0E711CF801A080B18026FF0C
:1010600003C0652D70E002C06FEF7FEFC5012C87D4
:101070000E9459092C012C852068222E830123FC13
:101080001BC0832D90E048165906B0F4B70180E2EA
:1010900090E00E946F093A94F4CFF50127FC859106
:1010A00027FE81915F01B70190E00E946F09311026
:1010B0003A94F1E04F1A51084114510471F7E5C018
:1010C000843611F0893639F5F80127FF07C06081B1
:1010D0007181828193810C5F1F4F08C06081718193
:1010E000072E000C880B990B0E5F1F4F2F76722E68
:1010F00097FF09C090958095709561957F4F8F4FB0
:101100009F4F2068722E2AE030E0A4010E94A709B8
:10111000A82EA81844C0853729F42F7EB22E2AE0C5
:1011200030E025C0F22FF97FBF2E8F36C1F018F4C2
:10113000883579F0B4C0803719F0883721F0AFC016
:101140002F2F2061B22EB4FE0DC08B2D8460B82EDF
:1011500009C024FF0AC09F2F9660B92E06C028E060
:1011600030E005C020E130E002C020E132E0F801CB
:10117000B7FE07C060817181828193810C5F1F4F30
:1011800006C06081718180E090E00E5F1F4FA40176
:101190000E94A709A82EA818FB2DFF777F2E76FEA8
:1011A0000BC0372D3E7FA51450F474FE0AC072FCAC
:1011B00008C0372D3E7E05C0BA2C372D03C0BA2C8F
:1011C00001C0B52C34FF0DC0FE01EA0DF11D808178
:1011D000803311F4397E09C032FF06C0B394B39452
:1011E00004C0832F867809F0B39433FD13C030FF19
:1011F00006C05A2CB31418F4530C5B18B32CB31458
:1012000068F4B70180E290E03C870E946F09B394D4
:101210003C85F5CFB31410F43B1801C0312C34FFDA
:1012200012C0B70180E390E03C870E946F093C85C3
:1012300032FF17C031FD03C088E790E002C088E5A7
:1012400090E0B7010CC0832F867859F031FF02C0BF
:101250008BE201C080E237FD8DE2B70190E00E9491
:101260006F09A51438F4B70180E390E00E946F097C
:101270005A94F7CFAA94F401EA0DF11D8081B701C9
:1012800090E00E946F09A110F5CF332009F451CEF0
:10129000B70180E290E00E946F093A94F6CFF7011F
:1012A0008681978102C08FEF9FEF2C96E2E10C942C
:1012B000210AFC010590615070400110D8F780951B
:1012C00090958E0F9F1F0895FC0161507040019012
:1012D0000110D8F7809590958E0F9F1F08950F935A
:1012E0001F93CF93DF93FB01238121FD03C08FEF79
:1012F0009FEF28C022FF16C0468157812481358187
:101300004217530744F4A081B1819D012F5F3F4FE5
:10131000318320838C93268137812F5F3F4F378322
:10132000268310C0EB01092F182F0084F185E02DD2
:101330000995892BE1F68E819F8101969F838E838B
:10134000812F902FDF91CF911F910F910895FA0176
:10135000AA27283051F1203181F1E8946F936E7FF4
:101360006E5F7F4F8F4F9F4FAF4FB1E03ED0B4E0E5
:101370003CD0670F781F891F9A1FA11D680F791F26
:101380008A1F911DA11D6A0F711D811D911DA11D37
:1013900020D009F468943F912AE0269F1124301947
:1013A000305D3193DEF6CF010895462F4770405DE2
:1013B0004193B3E00FD0C9F7F6CF462F4F70405D91
:1013C0004A3318F0495D31FD4052419302D0A9F7EC
:1013D000EACFB4E0A6959795879577956795BA95E6
:1013E000C9F700976105710508959B01AC010A2EAC
:1013F00006945795479537952795BA95C9F7620F83
:10140000731F841F951FA01D08952F923F924F9226
:101410005F926F927F928F929F92AF92BF92CF9284
:10142000DF92EF92FF920F931F93CF93DF93CDB78D
:10143000DEB7CA1BDB0B0FB6F894DEBF0FBECDBF05
:1014400009942A88398848885F846E847D848C84D6
:101450009B84AA84B984C884DF80EE80FD800C81DF
:101460001B81AA81B981CE0FD11D0FB6F894DEBFC2
:0C1470000FBECDBFED010895F894FFCF32
:10147C00000000002A01A600F300D100E500710174
:10148C00000000001403E402DC02CD02BF02BE0225
:0A149C004B6F6B69310025730000EF
:00000001FF
